:100000000C94D2020C9419030C9419030C94190348
:100010000C9419030C9419030C9419030C941903F0
:100020000C9419030C9419030C94A4140C94E0136D
:100030000C9491200C9419030C9419030C9419033B
:100040000C9419030C9419030C9419030C941903C0
:100050000C9419030C9450200C9419030C9419035C
:100060000C9419030C9419030C9419030C941903A0
:100070000C9419030C9419030C9419030C94190390
:100080000C9419030C9419030C9419030C94190380
:100090000C9419030C9419030C9419030C94190370
:1000A0000C9419030C9419030C9419039F089F08CE
:1000B000CF08CF086809C10AC10AC10A8609F9092F
:1000C0000C0A0C0A5A0E700E770EF10FF10FAF0EDC
:1000D000BB0ECA0EF10FD20EF90E220F5C0F5F0F8E
:1000E000E6110D12C2130D12C21359127C12C21363
:1000F0007D138D13AE16AE16C016C016B716C016F9
:10010000C016C016AE16AE16BC16C016C016BC166B
:10011000FD377A585A000004E6D6B44602002101A1
:1001200016000000742FE5A3E0016B00C15D003DE7
:100130008889C65436C3174FE4F190359211F51EE5
:10014000F6FB012435E279426480AA46054C12EAA6
:10015000BE66D8B7CB35CAE6D1A00131C2933F8E77
:10016000155CC0E070A2454CE9D7F257952A4217BA
:100170008187AEC8D43B1D37136351A23EC7C32746
:1001800021C04685C268B75B605DDF9080F589F36A
:100190001AA404D79E4870CECB2049B63193A199BA
:1001A0006342D72A3FA9EE9B4535E64C7A1ACB200D
:1001B000678A788D0F16AF32657077E4CC43770E7F
:1001C000FF246D671869B7C20BBF3CCE8FFF44B2E6
:1001D000A89B9756E54A4CDBD9141E914E55D5364F
:1001E000A158FAF6AD64D7492A1575415780C585DF
:1001F0000000000001E46C1A398ABCF80001DD013E
:10020000EC02000072D8B8CFB1C467FB0200000056
:100210000004595A05010980A101850319012AB773
:1002200000150126B700950175108100C0050C0965
:1002300001A101850419012AA002150126A0029539
:100240000175108100C00660FF0961A101096215F6
:100250000026FF009520750881020963150026FF1E
:1002600000952075089102C005010906A101050746
:1002700019E029E71500250195087501810295010E
:10028000750881010507190029FF150026FF009553
:100290000675088100050819012905950575019164
:1002A00002950175039101C009025B00030100A0E2
:1002B000FA090400000103010100092111010001F4
:1002C0002240000705810308000A09040100020317
:1002D000000000092111010001222200070582030C
:1002E00020000107050303200001090402000103A7
:1002F00000000009211101000122320007058403DA
:1003000020000A1201000200000008515357460164
:1003100000010203011C037600690061006C003AD1
:100320000066003600340063003200620033006370
:10033000000000160366007200650065002000776B
:100340000069006C006C00790000001203730071FA
:100350000075006100730068006B0062000000041B
:1003600003090414001A000800150017001C0018E7
:10037000000C001200130004001600070009000A18
:10038000000B000D000E000F0028001D001B0006D2
:100390000019000500110010003600370038000079
:1003A000000000E200E100E000E3002C0002510048
:1003B0000000001E001F0020002100220023002456
:1003C000002500260027001E021F02200221022213
:1003D000022302240225022E002D00310033002FBB
:1003E000022F0026022702300030023400350000C0
:1003F00000000001000100010001000100010000F7
:1004000000000000000000000000000000000000EC
:100410000000000000005C5000510052004F00003E
:1004200000000000000000000000000000000000CC
:1004300000000000000000000000000000000000BC
:1004400000000001000100010001000100010000A6
:10045000000000000000000000000000000000009C
:10046000000000000000000000000000000000008C
:10047000000000000000000000000000000000007C
:10048000000000000000000000000000000000006C
:100490000000000100010001000100010001000056
:1004A0000000000100010007030000020002000339
:1004B000030000030001000803000004000200ED37
:1004C00002E01F050001000903000006000200EF22
:1004D0000200000700020005030000080001000AF6
:1004E000030000120002000B030000130002000DC5
:1004F00003000000000000000000000000000000F9
:1005000000000000000000000000000000000000EB
:10051000000000000000007E0F00D4FFFFFFC700B6
:1005200000007800000000000000002A2B280000D6
:100530000000000000000000000000000000290092
:100540000000002C1E3420212224342627252E369C
:100550002D3738271E1F202122232425263333360A
:100560002E37381F0405060708090A0B0C0D0E0F5D
:10057000101112131415161718191A1B1C1D2F31E0
:1005800030232D350405060708090A0B0C0D0E0F44
:10059000101112131415161718191A1B1C1D2F31C0
:1005A00030354C0011241FBECFEFDAE0DEBFCDBFE7
:1005B00004B603FE27C08091350490913604A091C3
:1005C0003704B09138048730904BA740B04BD1F43A
:1005D00010923504109236041092370410923804A9
:1005E00014BE84B7877F84BF0FB6F894A895809116
:1005F0006000886180936000109260000FBEE0E0B0
:10060000F8E3099511E0A0E0B1E0E0E3F9E502C00C
:1006100005900D92AC36B107D9F724E0ACE6B1E015
:1006200001C01D92A533B207E1F70E941D0B0C9487
:10063000962C0C9400008F929F92AF92BF92CF9213
:10064000DF92EF92FF920F931F93CF93DF9300D02F
:1006500000D0CDB7DEB77C01DC0113964D915C91E3
:10066000149711966C9111978C910E94EC21811135
:10067000D3C761E0C7010E9493268C01F7018281F4
:10068000811106C0D70112968C9181113EC0BEC067
:1006900080910D0190910E010196A1F365E1C62EA6
:1006A00063E0D62EA12CB12C9924939480910D0156
:1006B00090910E018A159B052CF3F6018681882303
:1006C000E9F0818592850817190739F480911303A1
:1006D000909114030817190789F0D6011F969C9270
:1006E0001F971C961C930E931B97C6010E945321C3
:1006F000C60106960E940C2110921203BFEFAB1A9E
:10070000BB0AE6E1CE0ED11CD1CFC80182519F4574
:10071000409708F079C48FEF93E00E94222C81115A
:100720007EC05EEED52ED00E09E212E0DD2071F023
:100730000115F4E01F0709F472C0C8010E94222CC1
:10074000811101C0DA940F5F1F4FF0CF19821A8216
:100750001B821C82AA24AA9468012FEFC21AD20A13
:10076000C8010E94222C89831A82882309F457C069
:10077000813009F046C0480182E0880E911CC60114
:100780000E94222C8A83882309F449C09FEF980F86
:10079000933060F4680193E0C90ED11CC4010E943B
:1007A000222C8B8381112DC08601D6CF843011F08D
:1007B0006401FACFC4010E94222CB82E6801A4E083
:1007C000CA0ED11CC80103960E94222CBB2039F10D
:1007D000882329F1282F30E021503109A29EA00161
:1007E000A39E500D11248B2D90E00197840F951F2F
:1007F0000197D0F2EFE9FFE03197F1F700C0000078
:10080000F7CFCE0101960E94B725CECF0031FFE58C
:100810001F07C1F481E00E9485160E94F3108091A9
:100820000B02877009F4F8C6D70112968C918823C1
:1008300009F4F2C68091720182FDEEC682E00E9448
:10084000941EEAC601312FE5120711F482E0E3CFCE
:100850006801B7E5DB1AEFEFCE16D10411F008F00E
:1008600040C06BED73E08C2D0E947525892BC9F576
:1008700086E18C9DF0018D9DF00D1124EB5EFC4F07
:1008800086818130C9F48091DB039091DC03892B50
:1008900041F18091DD039091DE03892B11F180916C
:1008A000DF039091E003892BE1F48091E1039091C3
:1008B000E203892B49F015C0823099F48091DF035F
:1008C0009091E003892B69F026E12C9DC0012D9DBC
:1008D000900D11248B5E9C4FDC0150961C920E945F
:1008E0005321C80197558F3F910511F008F054C06E
:1008F00020910D0130910E012817390724F49093AF
:100900000E0180930D01F701228136E1389F5001DD
:10091000399FB00C1124C5018B5E9C4F6C01DC012A
:1009200050962C935097928116968C9116979923F6
:1009300041F11A961C930E9319978F5F16968C931C
:100940000E948520F6019687858780910F02878314
:100950009091120380912002892B80870190F08171
:10096000E02D309749F0D60154966D917C915597C2
:10097000C501855E9C4F09951093140300931303E2
:100980000BC0882349F0F6018189882329F0C5012D
:10099000855E9C4F0E940C218091080380FFBFC0A0
:1009A0000E9485206C01D70112968C918823D9F181
:1009B0008091130182FF08C024E132E040E0B601DB
:1009C00080E090E00E9483230B31BCE51B0779F0A7
:1009D0000C31ECE51E0789F00A31FCE51F07A1F494
:1009E00080911301982F909590FB80F909C0809118
:1009F000130181608093130107C0809113018E7FE2
:100A0000809313010E944623C8019056811520E26D
:100A1000920720F0905E8115904180F5109244027B
:100A2000109243027CC0013E110521F48091130114
:100A30008F7E06C0053E110531F4809113018F7D34
:100A4000809313011BC0C80190568115B0E29B072B
:100A500020F0905E8115904188F48091130182FF0F
:100A60005EC080910A0381FD5AC024E132E040E07B
:100A7000B60180E090E00E94832351C08091130171
:100A800080FF4DC0D70112968C910832110538F4C1
:100A90000E311105B8F40430110578F41CC0093387
:100AA000110538F40D32110590F40B32110579F06F
:100AB00012C00436110559F00EC09091080394FD40
:100AC0000AC0A8C19091080393FD05C0A3C19091ED
:100AD000080392FF9FC1882311F1109244021092E3
:100AE0004302033FBCE51B07B9F178F4083DFCE580
:100AF0001F0761F1093D2CE5120709F44EC0073DBF
:100B00008CE5180709F057C01BC0053F9CE5190785
:100B1000A1F168F1063FBCE51B07C9F14CC0033FDA
:100B2000BCE51B07C9F0F0F4083DFCE51F0771F0B8
:100B3000093D2CE5120789F1073D8CE51807B1F551
:100B400006E221EE41EE67ED7CE52CC007E225EEE2
:100B500045EE68ED7CE526C006E221EE40EE63EF4F
:100B60007CE520C0053F9CE5190739F060F407E2F9
:100B700025EE44EE64EF7CE515C006E221EE42EE80
:100B800065EF7CE50FC0063FBCE51B0779F407E283
:100B900025EE46EE66EF7CE505C008E221E045EE75
:100BA00069ED7CE5C7010E94752139CEF7012281EC
:100BB000222309F4DDC1109211030330FDE51F0764
:100BC00058F40A3F2CE5120760F4C80182509C4596
:100BD000449708F0CCC105C001368DE5180709F02F
:100BE000C6C10E94DF1D9093720180937101003194
:100BF0009CE5190709F4CAC008F041C00830BCE5FB
:100C00001B0709F4A4C0F0F40430FCE51F0709F445
:100C10008CC068F402308CE5180709F482C00330F8
:100C20001C4509F0E7C0809171018260E1C0063087
:100C3000ACE51A0709F483C008F085C08091710102
:100C40008860D6C00C30ECE51E0709F490C068F44B
:100C50000A302CE5120709F47EC008F084C00E9417
:100C6000D316809171018068C3C00E309CE51907CE
:100C700009F481C008F086C08091710194C00C3FD6
:100C8000BCE51B0709F47BC038F50431FCE51F0700
:100C900009F49AC058F402318CE5180709F47AC0B7
:100CA00008F07EC0809171018F7BA2C00A3FACE545
:100CB0001A07F1F108F03FC005311C4509F09AC050
:100CC0008091710182FB222720F991E0922790FB0D
:100CD00082F990FB83F98CC00115FDE51F0709F42B
:100CE00067C050F4809172010E3F9CE51907C1F175
:100CF00008F05BC08D7F65C00230BDE51B0709F4BD
:100D000071C008F46DC001361D4509F073C08091B3
:100D1000710184FB222720F991E0922790FB84F94E
:100D200067C080917101816063C08091710116C0BC
:100D30008091720116C080917201826042C08091E0
:100D40007101806155C080917101806251C08091B4
:100D5000710180644DC0809171018860846048C0D9
:100D6000826081602EC0809171018E7F41C0809130
:100D700071018D7F3DC080917101877F39C0809165
:100D8000720114C0809171018F7E32C08091710117
:100D90008F7D2EC00E94D316809171018F7728C05D
:100DA00080917101877F8B7F23C08D7F8E7F09C0EB
:100DB00080917201982F909591708E7F892B90FB76
:100DC00081F98093720116C00E94D316809171013F
:100DD00087FB222720F991E0922790FB87F908C032
:100DE00061E001C060E08EE090E00E94302C02C023
:100DF00080937101609171011091720184E090E023
:100E00000E94302C612F82E290E00E94302C0E94E0
:100E1000D31605CD882309F4A3C020912002809128
:100E20000F02982F922B392F3D7F79F110924402B7
:100E3000109243023091080331FD27C0F80143E0CE
:100E4000F695E7954A95E1F7EE71FF27EF5DFD4FC7
:100E500098012F70332781E090E002C0880F991F1E
:100E60002A95E2F780959095208131818223932302
:100E700091838083A70160E0C8010E946423809170
:100E80000F028D7F0E94651E67C038E0F701A4E164
:100E9000B2E001900D923A95E1F71092160210928D
:100EA0001802109217024091430250914402041715
:100EB0001507D1F53091080335FF36C04091130175
:100EC00041FF02C036FF30C04091410250914202C2
:100ED000B601641B750B409105035091060364171E
:100EE000750710F521FF08C0809113018061809380
:100EF000130182E00E94801E8091200285FF08C0BD
:100F00008091130180628093130180E20E94801E11
:100F10006091130166956170A701809143029091E1
:100F200044020E9464237BCC96959170209113011A
:100F300090FB21F9209313018D7F0E94651E109371
:100F4000440200934302D0924202C0924102809137
:100F5000130184608093130182E00E94941E5FCC91
:100F6000970140E0B601C8010E94832358CC21E0DC
:100F70000631ECE51E0709F056C080912002982F3B
:100F80009A7A3091070330FF04C0482F447409F067
:100F900090E031FF04C0482F417109F090E032FF2A
:100FA00004C0482F487809F090E033FF02C08272F5
:100FB00061F42223A1F081E0911101C080E08093CF
:100FC0006E01992331F065E305C0222341F01092B0
:100FD0006E0169E286EB91E00E94BA2012C0809116
:100FE0006E01882311F085E301C089E2E6EBF1E0B0
:100FF0009281891301C01282319621E0EC3BF20705
:10100000B9F70E94FE1E0BCC00318FE5180711F4D2
:1010100081E006C001319FE5190709F062CC82E04A
:101020000E949116FACBD70112968C91882389F1F0
:101030000A358DE5180741F150F40115ACE51A07A2
:10104000A9F00E3D1C4529F50E94F01DE8CB0B359B
:10105000EDE51E07D9F00C351D45D9F480917201DC
:1010600082FB882780F991E0892711C00E94D3165E
:101070002FEF84E39CE0215080409040E1F700C0D6
:1010800000000E943F20CBCB81E001C080E00E94A5
:10109000B11ED70116968D919C9117970097B9F4C0
:1010A000F701828100811181882349F0C8010E94E3
:1010B000E815D82E682FC8010E94541604C0C80134
:1010C0000E942416D82EB8018D2D0E94C2240E94A1
:1010D000561C182F092FD7011296BC9012971596FF
:1010E000CC90C2943FE0C32280910B028770B9F08C
:1010F000BB20A9F0892F807F803421F080E2810F0E
:10110000883068F08091720182FD09C082E00E94FF
:10111000941E80910B028770AA24A3948111A12CA4
:10112000902E92942FE09222892D90E08C309105A0
:1011300008F027C2FC01EA5AFF4F0C946C2C902F48
:101140009F70802F807FD92E19F0D29490EFD922F2
:10115000BB20A9F0DD2009F4F4C180E2810F8830C2
:1011600010F0111104C08D2D0E94871E05C08091C2
:101170001203D82AD09212030E94FE1EE2C1812FD0
:101180000E94FD16DD2009F4FCC180E2810F883049
:1011900068F1112359F18D2D0E94791E2AC0902FDC
:1011A0009F70802F807FD92E803219F0D29480EFEB
:1011B000D822112321F0113009F45CC067C080915E
:1011C000720182FF19C0BB2059F0DD2029F08D2D5E
:1011D0000E94871E0E94FE1E80E00E942E17D1C131
:1011E00080E00E94FD16DD2009F4CBC18D2D0E9408
:1011F000801E0E94FE1EC5C1BB2001F1CC20D1F093
:10120000B1E0CB1206C080910F028D290E94651EAD
:10121000B8C180910903823068F0C8120BC00E94E7
:101220005A1E80910802D812D09208028D2D0E9479
:10123000F616A7C180910F028D29F9CFCC2079F045
:1012400080910903E1E0CE1210C0823008F499C108
:10125000809120028D2109F494C10E94391F0E94BF
:101260005A1E8D2D0E94EF168CC18230C0F3C81219
:10127000F6CF87C1BB2029F0F5E0FC1508F481C149
:10128000D5CF24E02C1508F47CC1EBCFBB20E9F0CE
:10129000CC2061F220E0D7014C9111965C9111971E
:1012A00012966C91129713967C91139714968C91C9
:1012B0000E946A2680910A0381FD43C1F70185815E
:1012C00080FF3FC18F708583B1CFC11043C1C9CFAB
:1012D000802F86958695837019F0813061F051C119
:1012E000BB2021F0812F902F937002C080E090E00E
:1012F0000E94EA204CC1BB2021F0812F902F9370D7
:1013000002C080E090E00E94D42041C1802F837011
:10131000A1F5B1103AC1412F429546954770440F4F
:10132000440F212F2F7030E0C901042E01C0880F17
:101330000A94EAF714FF08C02FE030E001C0220F42
:101340004A95EAF7209501C020E0302F3695369572
:101350003370323069F040F440911002313019F0AE
:10136000822B842302C0842B822B0E949C160DC1E9
:10137000282B809110028227F8CFBB2019F0802FF4
:10138000817001C08695882309F4FFC0412F4295E2
:1013900046954770440F440F212F2F7030E0C9014C
:1013A000042E01C0880F0A94EAF714FF08C02FE04A
:1013B00030E001C0220F4A95EAF7209501C020E0F5
:1013C000302F369536953370323051F070F44091AD
:1013D000A601313019F0822B842308C0842B05C06C
:1013E000282B8091A601822701C0822B0E948116A2
:1013F000CCC0F02FFF70DF2EBB2039F08F2F0E9462
:101400009116812F0E94F616C0C0812F0E94EF1600
:101410008D2D0E948516B9C0123F11F128F4103F9E
:1014200041F0113FA9F189C0133F01F1143F61F16F
:1014300084C0BB2029F024E02C1508F4A2C004C00D
:1014400085E08C1508F49DC0202F2F7181E090E07D
:1014500001C0880F2A95EAF79091A60189270FC04D
:10146000802F8F71BB2009F470C087C0BB2051F062
:1014700081E0902F9F7101C0880F9A95EAF70E9432
:1014800081167FC080E0FBCF8091720182FF06C091
:10149000802F8F71BB2009F470C057C08091090361
:1014A0008230A0F180910802BB20E1F00E94801EF2
:1014B00080910B028770843039F40E948D1E802F3A
:1014C0008F710E9485165CC080910903C81608F0D0
:1014D00057C0902F9F71D92E892F0E94911663E0DB
:1014E0008D2D0DC00E94871E80910903C81650F0F3
:1014F0000E948D1E0E94391F64E0802F8F710E9410
:10150000CE1E3EC081E00E94941E3AC0BB2059F01E
:10151000A02FAF71DA2E8A2F0E94911663E08D2DD5
:101520000E94CE1E2EC081E00E94941EB1E0BC1528
:1015300040F582E00E94941E24C0BB2049F0CC20DC
:1015400011F0812F4ACE802F8F710E94911619C001
:10155000CC2089F0193329F480910D0390910E036A
:1015600004C080910B0390910C030E947823812F7B
:101570000E94FD1606C0802F8F710E94851601C043
:10158000A12C88EF890D843010F40E940021812F56
:10159000902F0E94A016811105C010927001109228
:1015A0006F011EC0BB2019F0C110F7CF19C0C110C8
:1015B000F4CF20E0F7014081518162817381848101
:1015C0000E946A2680910A0383FFE7CF80916F0112
:1015D00090917001029709F7812F0E948017DDCF4B
:1015E000AA20B1F080910B0280FD12C0D7011296A3
:1015F0001C928595859585950E949116C7010E943C
:101600001B0380910B028595859585950E94851613
:1016100060E0C7010E9493260F900F900F900F90EB
:10162000DF91CF911F910F91FF90EF90DF90CF90BE
:10163000BF90AF909F908F900895CF93DF93CDB7D9
:10164000DEB7E4970FB6F894DEBF0FBECDBF84B708
:10165000877F84BF0FB6F894A89580916000886159
:1016600080936000109260000FBE90E080E80FB69B
:10167000F89480936100909361000FBE85B78068F5
:1016800085BF85B7806885BF8AE89AE190936D0130
:1016900080936C010E946D2B0E94142B0E944B249E
:1016A0000E9424140E9443148091E200846080937D
:1016B000E200789480919C018823A1F01091E900C8
:1016C0001F709091EC00892F817090FD80E8182B9D
:1016D0001092E9008091E80083FD0E94FE101F70C7
:1016E0001093E90082E084BD93E095BD9AEF97BD29
:1016F00080936E000E94F02B811102C00E94E12BAA
:101700000DE111E0B1E2EB2EB1E0FB2ED8018D919D
:101710008D018F3F11F00E94CF1AE016F106B1F74C
:1017200001E211E0ABE2EA2EA1E0FA2EF80181918C
:101730008F018F3F11F00E94CF1AE016F106B1F72A
:1017400088E0E7E8F1E0DF01282F1D922A95E9F70C
:10175000E3E7F1E0DF011D928A95E9F780E090E090
:101760000E942A2C8A3E9E4F21F40E94F02B811168
:1017700002C00E94F01D82E090E00E94222C809323
:101780007C010E94DF1D90937201809371010E9481
:10179000E61AEFE3FCE93197F1F700C000000E9480
:1017A000E61A8091870180FF08C06FEF7FEF80E02D
:1017B00090E00E944E2C0E943F2083E090E00E9427
:1017C000222C0E949C1680E091E09093C8038093A5
:1017D000C70378E1672E712CE0E45E2EFFE8CF2E80
:1017E000F1E0DF2E8E010F5F1F4F80919C0185304D
:1017F00009F043C050E1E52E62E1F62E80919C0194
:10180000853009F036C080919C01843009F1109236
:10181000CB030FB6F894A895609260000FBE50926B
:10182000600083B7817F846083BF83B7816083BF9B
:101830007894889583B78E7F83BF0FB6F894A89568
:1018400080916000886180936000109260000FBEFC
:1018500080919B01882391F20E94E61AE7E8F1E06B
:1018600081919191892B09F0E4C3CE16DF06C1F76F
:10187000C5CF0E94D3160E9400210E94E61A882339
:1018800059F08FB7F8944091CC035091CD036091FB
:10189000CE037091CF038FBFA7E8B1E0EDE7F1E091
:1018A000E12CF12C7E2D2D913D91819191918227FA
:1018B0009327009779F160E0AA24A394B12CAC019E
:1018C0004A215B21452B09F16BA77CA72A213B21EB
:1018D00081E0232B09F480E08DA70E9485208160A0
:1018E000782F9FA78EA74BA55CA56DA58FA50E94FD
:1018F000A126F701EE0FFF1FE358FE4F8081918173
:10190000A826B926B182A0821CC06F5FAA0CBB1C9E
:101910006A30A9F62FEFE21AF20A44E0E416F10465
:1019200009F68FEF88AB89AB1AAA0E9485208160E7
:10193000782F9CAB8BAB48A959A96AA98CA90E94A6
:10194000A1260E94002190917B01891721F00E941D
:10195000002180937B0180919C01843009F045CF68
:1019600083E08093E9008091E80082FF3ECF809180
:10197000E80085FF23C00E947B1581111DC070E225
:10198000A72EB12CCE0101967C0109C08091F100F7
:10199000D7018D937D01B1E0AB1AB10869F0809158
:1019A000E80085FDF3CF8091E8008B778093E80015
:1019B0000E947B15882399F391E001C090E080910B
:1019C000E8008B778093E800992309F40ECFE0902C
:1019D0001E02F0901F028981E114F10461F08E3F34
:1019E00009F0FFC28A81833008F458C185508330E2
:1019F00008F0F7C253C1893009F4F1C2F0F4843021
:101A000009F481C050F48230C1F108F06DC081301A
:101A100009F0E5C21A8289E0C3C1863009F47AC0B0
:101A200008F0DDC22D813E813227232732274C81E9
:101A30006B818A810E94B02AD4C2803109F4CAC065
:101A400080F48D3009F469C028F48C3009F0C7C2E5
:101A500080E163C28E3009F464C08F3009F48CC019
:101A6000BEC2823109F4BBC008F4B7C0833109F4A7
:101A7000E0C08E3F09F412C1B2C28A81823009F4FB
:101A8000EEC2833089F0813009F0A9C22FB7F894F3
:101A90008091CC039091CD03A091CE03B091CF0360
:101AA0002FBFBB83AC8334C080910F019091100194
:101AB000892B09F496C280918701909188019B83BC
:101AC0008C838091890190918A019D838E8380917E
:101AD0008B0190918C019F83888780918D019091DB
:101AE0008E0199878A877DC28A81823009F077C208
:101AF0006B817C818D819E810E94722C86E290E0B8
:101B00000E94302C6EC24C816B818A810E94E62A31
:101B10009D83ACC20E94DE2464C281E08A8387ED8B
:101B20003FC1EA80FB80FE24EF24FE248C80912CB0
:101B3000EDE18E16910408F054C25801C701875D8B
:101B40009D4F9501201B310B2815390508F049C21E
:101B5000F7EDEF16F1E0FF0630F40E94222CD501DC
:101B600014968C9302C0F5011482FFEFEF1AFF0A5E
:101B70002FEFA21AB20AE2CF80910F0190911001CB
:101B8000892B09F42EC2EA80FB80FE24EF24FE2478
:101B9000AC80B12C4DE1A416B10408F022C248017A
:101BA000C701875D9D4F9401201B310B2A153B0512
:101BB00008F017C2A7EDEA16A1E0FA0620F4F40136
:101BC00064810E94302CFFEFEF1AFF0A2FEF821A78
:101BD000920AE6CF0E94B22404C284E09EC1EA8049
:101BE000FB80FE24EF24FE248C80912C4DE1841692
:101BF000910408F0F6C15801C70187969501201B92
:101C0000310B2815390508F0ECC1A0E4EA16A1E073
:101C1000FA0628F40E94222CF501848303C0D50122
:101C200014961C92BFEFEB1AFB0AEFEFAE1ABE0A36
:101C3000E3CFEA80FB80FE24EF24FE24AC80B12CAD
:101C4000FDE1AF16B10408F0CCC120E4E21621E0BA
:101C5000F20608F0C6C180E491E08E199F098A154A
:101C60009B0508F4BEC14801C70187969401201B5B
:101C7000310B2A153B0508F0B4C140E4E41641E0FD
:101C8000F40628F4D40114966C910E94302CBFEF16
:101C9000EB1AFB0AEFEF8E1A9E0AE6CFEA818E2F2F
:101CA00090E08E30910508F09CC1FC01EE59FF4F89
:101CB0000C946C2C88E0E5E1F1E0DE019196019056
:101CC0000D928A95E1F780E2D8011D928A95E9F795
:101CD00084E0898388E0FE01B196DE0115965BC140
:101CE00084E0898381E08A831B821C827AC18C8193
:101CF00090E0982F88272B81820F911D092E000CD0
:101D0000AA0BBB0B65E0880F991FAA1FBB1F6A9522
:101D1000D1F7AC01BD01405E5F4F6F4F7F4F481759
:101D200059076A077B0708F45CC18430E1E09E072D
:101D3000A105B10508F055C14530F1E05F07610527
:101D4000710520F044E051E060E070E0481B590B61
:101D5000BC01605F7E4FC8010E94092C42C140E275
:101D600050E06FEF70E0C8010E948F2C80910F014E
:101D70008983EA8236C181E090E090931F028093CC
:101D80001E0282E390E090938601809385010E9479
:101D9000852027C180910F018983EA828091850186
:101DA0008B831FC1EB80FC8040E250E06FEF70E05E
:101DB000C8010E948F2C23EA34E080E090E0AC015F
:101DC0004E5F5F4F4132510508F00BC1F90165913B
:101DD0007491E616F70630F4F801E80FF91F7183E5
:101DE0006083CA01285F3F4F44E0233F340739F73F
:101DF000F8C02B813C8183EA94E0FC014591549129
:101E00002417350731F00896A4E0833F9A07A9F715
:101E1000E6C0009709F4E3C09C012E5F3F4FF90133
:101E2000459154914032510508F0D9C0F9014591CE
:101E30005491FC01349665917491CE0102960E94F2
:101E4000862C38C02B813C8183EF94E043EAE42E5A
:101E500044E0F42EF701459154912417350739F0E9
:101E6000B8E0EB0EF11C8E159F05A1F7B8C0E11488
:101E7000F10409F4B4C0C7010296FC012591349124
:101E80002D31310508F0ABC0FC0145915491F701AB
:101E9000349685919491BE016B5F7F4F0E94862C92
:101EA0000E947224F701369685919491009711F063
:101EB000FC01099580E094C00E948F2492C08B8120
:101EC000823069F1E8F4882309F1813009F089C092
:101ED0008C819AE0F92E5E01B1E2AB0EB11CF501E6
:101EE0002F2D11922A95E9F7B5010E947525898356
:101EF000F501DE01129601900D92FA94E1F771C09E
:101F0000833061F1843009F44BC06BC080E2D801AA
:101F10001D928A95E9F788E089838A8362C06C8183
:101F20008AE0FE013596DE01919601900D928A9528
:101F3000E1F7683070F44AE0649FB00111246757FC
:101F40007E4F4AE050E0CE0181960E94542C80E002
:101F500001C08FEF89830E946D2B43C06C81CE013D
:101F600081962AE0DC011D922A95E9F7683060F439
:101F7000BAE06B9FB001112467527E4F4AE050E0F7
:101F80000E94122C80E001C08FEF89838AE0FE015D
:101F9000B196DE01129601900D928A95E1F721C06B
:101FA0006C818AE0FE013596DE01919601900D92DA
:101FB0008A95E1F7683070F4EAE06E9FB001112471
:101FC00067527E4F4AE050E0CE0181960E94542C29
:101FD00080E001C08FEF89830E94142B02C08FEF35
:101FE000898380919C01843009F0FFCB8091E900C6
:101FF0008F702091EC00922F917020FD90E8F92EC7
:10200000F82A82E08093E9008091E80080FF0CC00C
:1020100040E050E060E270E0C8010E94AE1580919F
:10202000E8008E778093E8008F2D8F708093E90011
:10203000DCCBE9BCF9BC09B400FEFDCF8091D8002F
:102040008F7D8093D8008091E00082608093E000D3
:102050008091E00081FDFCCF0E94D316CFCB86E2B9
:1020600090E00E94222C1B821C821D828E83B9CF9D
:1020700080919E0187FF11C08091E80082FD05C01C
:1020800080919C018111F8CF11C08091E8008B777D
:102090000BC080919C01882349F08091E80080FF6B
:1020A000F8CF8091E8008E778093E8000895982F0C
:1020B000973068F59093E900981739F07091EC002B
:1020C0002091ED005091F00003C0242F762F50E0B6
:1020D00021FD02C09F5FECCF3091EB003E7F30933B
:1020E000EB003091ED003D7F3093ED003091EB003F
:1020F00031603093EB007093EC002093ED0050932F
:10210000F0002091EE0027FDE5CF80E008958F706C
:102110008093E90081E008952091A4013091A50108
:102120002617370748F06115710539F42091E8004A
:102130002E772093E80001C0B901FC0120E0611571
:10214000710579F180919C018823F1F18530F1F1DD
:102150008091E80083FD3CC08091E80082FD2EC0A4
:102160008091E80080FFEBCF2091F3008091F20096
:1021700090E0922B6115710551F08830910538F48B
:1021800021912093F100615071090196F3CF21E074
:10219000089709F020E08091E8008E778093E800AE
:1021A000CECF2111CFCF0AC080919C01882361F04E
:1021B000853061F08091E80083FD0AC08091E800DD
:1021C00082FFF2CF80E0089582E0089583E00895D1
:1021D00081E008950895BC0184E00C941520BC01B1
:1021E00083E00C9415208091A601982F967096306C
:1021F00011F4886001C0877F0C9481161F93CF93E0
:10220000DF93CDB7DEB7AA970FB6F894DEBF0FBE47
:10221000CDBFEEE9F1E086EA91E02091F100219353
:102220008E179F07D1F780919F01833009F463C017
:1022300030F4813071F0823009F49DC0B4C08A302E
:1022400009F489C08B3009F46EC0893009F0ABC045
:1022500020C080919E01813A09F0A5C08091E800DC
:10226000877F8093E8008091A2019091A301892B40
:1022700021F468E082E991E003C060E080E090E052
:1022800070E00E948C108091E8008B778093E800CA
:102290008AC080919E01813209F085C08091A2019F
:1022A0009091A301009719F0029709F07CC08091EA
:1022B000E800877F8093E8008091E80082FD05C0F8
:1022C00080919C018111F8CF6EC02091F300809124
:1022D000F20090E0922B029731F48091F10081306E
:1022E00011F0863021F48091F1008093910180916A
:1022F000E8008B7754C080919E01813A09F053C069
:102300008091A2019091A301892B09F04CC080918A
:10231000E800877F8093E8008091E80080FFFCCF91
:1023200080910C0137C080919E018132E1F580914E
:10233000A2019091A301892BB1F58091E800877FDC
:102340008093E8000E9438108091A00180930C01D6
:102350000E94D31628C080919E01813221F5809180
:10236000E800877F8093E8000E9438108091A101E7
:102370008093900118C080919E01813AA1F48091D0
:10238000E800877F8093E8008091E80080FFFCCF21
:10239000809190018093F1008091E8008E77809386
:1023A000E8000E9438108091E80083FFEBC1809123
:1023B0009E0190919F01492F50E04A30510508F04D
:1023C000E1C1FA01E059FF4F0C946C2C803821F0E8
:1023D000823809F0D7C108C080919A0190919B0181
:1023E000992389F082600FC08091A2018F7087309D
:1023F00008F0C8C18093E9008091EB0085FB882735
:1024000080F91092E9009091E800977F9093E8009E
:102410008093F1001092F1007CC1282F2D7F09F0EC
:10242000B1C1882319F0823061F0ACC18091A00164
:10243000813009F0A7C1933009F080E080939B01BF
:102440002EC08091A00181112AC08091A2018F70BD
:102450002FEF280F263008F095C18093E9002091D6
:10246000EB0020FF1CC0933021F48091EB008062D0
:1024700014C09091EB0090619093EB0021E030E06C
:10248000A90102C0440F551F8A95E2F74093EA0064
:102490001092EA008091EB0088608093EB0010922C
:1024A000E9008091E800877F8093E8000E9438105F
:1024B00069C1811167C11091A0011F778091E3006C
:1024C0008078812B8093E3008091E800877F809360
:1024D000E8000E9438108091E80080FFFCCF8091D6
:1024E000E30080688093E300111102C082E001C024
:1024F00083E080939C0146C18058823008F042C13D
:102500002091A0013091A1012C3D53E0350779F5D0
:1025100083E08A838AE289834FB7F894DE011396B9
:1025200020E03EE051E2E32FF0E050935700E491C9
:1025300020FF03C0E295EF703F5FEF708E2F90E0B9
:10254000EA3010F0C79601C0C0968D939D932F5F1F
:10255000243149F74FBF8091E800877F8093E800DE
:102560006AE270E0CE0101960E948C10C0C080919A
:10257000A2019091A301432F552743305105B1F09B
:1025800068F44130510509F40CC14230510509F09D
:10259000F9C08BE590E0E8EAF2E057C0413251051E
:1025A00089F14232510509F43CC0ECC0C9019927B8
:1025B00081309105B9F070F082309105D9F0039720
:1025C00009F0E0C0E5E1F3E0E4918E2F90E0E5E171
:1025D000F3E038C0EFE5F3E0E4918E2F90E0EFE513
:1025E000F3E030C0EBE4F3E0E4918E2F90E0EBE415
:1025F000F3E028C0E3E3F3E0E4918E2F90E0E3E31F
:10260000F3E020C08330910508F0BCC0880F991F0B
:10261000FC01EC5CFE4F0190F081E02D89E090E040
:1026200014C08330910508F0ADC0FC01EE0FFF1F10
:10263000E25DFE4F0190F081E02DDC01A55DBE4F13
:102640008C9190E0009709F49DC02091E800277FCD
:102650002093E8002091A4013091A50128173907A3
:1026600008F4C90140E0009789F120919C012223E0
:1026700009F43DC02530D9F12091E80023FD37C091
:102680002091E80022FD2FC02091E80020FFEBCF31
:102690004091F3002091F20030E0342B009759F084
:1026A0002830310540F444914093F1003196019770
:1026B0002F5F3F4FF3CF41E02830310509F040E074
:1026C0002091E8002E772093E800CDCF4111CDCFA7
:1026D0000AC080919C01882351F0853041F080919F
:1026E000E80083FD04C08091E80082FFF2CF809172
:1026F000E8008B778093E80045C0803809F042C03D
:102700008091E800877F8093E80080919D0180930D
:10271000F1008091E8008E77C7CE811133C080919F
:10272000A0019091A1019927029764F58091E8009A
:10273000877F8093E8001091A00110939D010E9473
:102740003810111106C08091E30087FD02C081E0BE
:1027500001C084E080939C0142E061EC81E00E9432
:10276000571042E261EC84E00E94571042E261ECB3
:1027700082E00E94571042E260EC83E00E94571012
:1027800080919C018091E80083FF10C08091E80057
:10279000877F8093E8008091EB0080628093EB005C
:1027A00005C082E190E0E3E0F3E04FCFAA960FB6D8
:1027B000F894DEBF0FBECDBFDF91CF911F9108957A
:1027C0001F920F920FB60F9211242F933F934F93A6
:1027D0005F936F937F938F939F93AF93BF93CF93A9
:1027E000DF93EF93FF93C091E900CF708091EC00ED
:1027F000D82FD17080FDD0E81092E9008091F000D0
:10280000877F8093F00078940E94FE101092E90078
:102810008091F00088608093F000CD2BCF70C09342
:10282000E900FF91EF91DF91CF91BF91AF919F911F
:102830008F917F916F915F914F913F912F910F9069
:102840000FBE0F901F901895E8EDF0E080818E7F0D
:1028500080831092E2001092DA001092E100A0EE64
:10286000B0E08C9181608C9380818F77808319BCDC
:10287000A7EDB0E08C918E7F8C9380818F7E8083DA
:1028800010928F010895CF92DF92EF92FF920F93F3
:102890001F93CF93DF93C8EDD0E088818F7E88832C
:1028A000E7EDF0E080818160808384E082BF81E099
:1028B00080938F0188818E7F888302EE10E0F8017B
:1028C00010821092DA0081EEC82ED12CF60110820F
:1028D00088818F77888388818068888388818F7DCD
:1028E000888319BC10929C0110929D0110929B014B
:1028F00010929A0190EEE92EF12CF70180818B7FE6
:10290000808388818160888342E060E080E00E946B
:102910005710F60180818E7F8083F801808181606D
:102920008083808188608083F70180818E7F8083AF
:10293000888180618883DF91CF911F910F91FF90F3
:10294000EF90DF90CF9008951F920F920FB60F92E5
:1029500011242F933F934F935F936F937F938F93A4
:102960009F93AF93BF93EF93FF938091E10082FF1A
:1029700009C08091E20082FF05C08091E1008B7F59
:102980008093E1008091DA0080FF2AC08091D80016
:1029900080FF26C08091DA008E7F8093DA008091DC
:1029A000D90080FF18C080E189BD82E189BD09B4EA
:1029B00000FEFDCF81E080939C0180918F01811109
:1029C0000FC00E9424140E9443148091E20084608E
:1029D0008093E20005C019BC10929C0110928F01F7
:1029E0008091E10080FF17C08091E20080FF13C05A
:1029F0008091E2008E7F8093E2008091E20080610E
:102A00008093E2008091D80080628093D80019BC46
:102A100085E080939C018091E10084FF30C080912B
:102A2000E20084FF2CC080E189BD82E189BD09B448
:102A300000FEFDCF8091D8008F7D8093D8008091DB
:102A4000E1008F7E8093E1008091E2008F7E809391
:102A5000E2008091E20081608093E20080919D011C
:102A6000882311F084E007C08091E30087FD02C055
:102A700081E001C083E080939C0180919C01809162
:102A8000E10083FF27C08091E20083FF23C0809193
:102A9000E100877F8093E10082E080939C011092A7
:102AA0009D018091E1008E7F8093E1008091E200A2
:102AB0008E7F8093E2008091E20080618093E2004B
:102AC00042E060E080E00E9457108091F000886052
:102AD0008093F000FF91EF91BF91AF919F918F9103
:102AE0007F916F915F914F913F912F910F900FBE0A
:102AF0000F901F9018952091E4003091E50095E625
:102B00004091EC00842F817040FF23C08091E80049
:102B100080FD1DC080919C01882399F0853099F03B
:102B20008091EB0085FD11C04091E4005091E500DB
:102B30002417350729F3915011F09A01E1CF84E071
:102B4000089582E0089583E0089581E0089580E08B
:102B500008954091E80042FFDDCF0895EF92FF9283
:102B60000F931F93CF93DF937C018B010E947B1502
:102B7000811119C0E70101151105A1F08091E8004C
:102B800085FD0AC08091E8008E778093E8000E945E
:102B90007B15882381F307C089918093F100015050
:102BA0001109E9CF80E0DF91CF911F910F91FF9044
:102BB000EF90089580E090E00E94EA2080E090E0AD
:102BC0000E94D4201092120310920C020C94FE1E4C
:102BD000CF92DF92FF920F931F93CF93DF936C01FD
:102BE0000091A60180911002082BC7E0D0E010E010
:102BF000C8010C2E02C0959587950A94E2F780FDD6
:102C000004C02197A8F7F12C09C0FC2EB6018C2F27
:102C10000E94C2240E94561C019799F38F2DDF91C8
:102C2000CF911F910F91FF90DF90CF900895CF9398
:102C3000DF93EC010E94E815BE010E94C2240E94AD
:102C4000561CDF91CF9108959E3F61F12AE0929F3B
:102C5000800D1124682F669566956695982F97705C
:102C600083E0689FB001112440E050E080E0FB0168
:102C7000E40FF51FE955FE4F208130E0092E02C018
:102C8000369527950A94E2F721703327042E01C068
:102C9000220F0A94EAF7822B4F5F5F4F43305105B2
:102CA00031F7089580E008959E3F51F12AE0929F08
:102CB000800D1124E82FE695E695E695877051E0A2
:102CC00001C0550F8A95EAF783E0E89FF0011124CF
:102CD000E955FE4F20E030E070E04081CB01022E4C
:102CE00002C0969587950A94E2F7817081958427B2
:102CF0008523842781932F5F3F4F2330310569F768
:102D000008958093A6010C94DA1521E030E001C00B
:102D1000220F8A95EAF720958091A60182230C94D0
:102D2000811621E030E001C0220F8A95EAF78091F8
:102D3000A601822B0C948116809310020C94DA1554
:102D4000E92FE295EF704E2F50E0FA013297EE3006
:102D5000F105B0F4E658FF4F0C946C2C803F91F0D5
:102D600018F4883E68F40EC0843F51F40BC0883ECE
:102D700048F0813F29F406C093FB882780F9089525
:102D800080E0089581E00895FC0186819781009795
:102D900019F00E94561C04C0808191810E94171670
:102DA0000E94A01608951092200286E0E8EBF1E060
:102DB000DF011D928A95E9F70C94DA15882321F03A
:102DC0000E94791E0C94FE1E0895882339F090917C
:102DD0001203892B809312030C94FE1E08958823FE
:102DE00021F00E94801E0C94FE1E0895882321F07D
:102DF0000E94871E0C94FE1E0895882371F19CEF9B
:102E0000980F913A60F4E6EBF1E09281891301C0EA
:102E10001282319691E0EC3BF907B9F70DC090E2D0
:102E2000980F983058F4982F977081E001C0880F60
:102E30009A95EAF70E94801E0C94FE1E9BE5980F5F
:102E4000933020F480E090E00C94EA20885A873197
:102E500020F480E090E00C94D4200895CF93882350
:102E600009F44CC0C82F8CEF8C0F813AF0F4E8EBDA
:102E7000F1E08EEB91E02191C21721F08E179F07B0
:102E8000D1F70DC0E6EBF1E08281C81301C01282D8
:102E9000319681E0EC3BF807B9F70E94FE1E6C2FDB
:102EA00086EB91E00E94BA200CC080E28C0F883043
:102EB00058F4C77081E001C0880FCA95EAF70E94F4
:102EC000871ECF910C94FE1EEBE5EC0FE33040F42F
:102ED000F0E0E65CFE4F808190E0CF910C94EA2018
:102EE000C85AC73158F4EC2FF0E0EE0FFF1FE35C37
:102EF000FE4F80819181CF910C94D420CF91089581
:102F00001F93CF93DF93182F893329F4C0910D03BA
:102F1000D0910E0304C0C0910B03D0910C03812FFC
:102F20000E942E17209741F08FE99FE00197F1F75B
:102F300000C000002197F6CF812FDF91CF911F9124
:102F40000C94FD162F923F924F925F926F927F9258
:102F50008F929F92AF92BF92CF92DF92EF92FF92A9
:102F60000F931F93CF93DF93CDB7DEB765970FB65F
:102F7000F894DEBF0FBECDBF8C0185E0F801DE0105
:102F8000519601900D928A95E1F7D8014C901196D7
:102F90005C9011971296EC9012971396CD90DC905E
:102FA000149760E08EEB91E00E9493268EEBA82EA2
:102FB00081E0B82E8090C1019090C201A40160917F
:102FC000BF018091BE010E94EC21F82E8111E5C164
:102FD0003090C001F601E819F9094F0160E0332093
:102FE00009F469C1C5010E949326609005037090A1
:102FF00006032090C3018614970408F014C1409181
:10300000C1015091C201B090BE01A090BF01822DBC
:10301000807F6A2D09F097C08B2D0E94EC218111D1
:1030200024C0D80111968C9111978A111EC08C91E1
:103030008B111BC02091C4013091C50116968D9152
:103040009C9117972817390781F4E1100EC0822D43
:103050008F7080618093C3018EEB91E00E941B030F
:103060008091C301F8018583B4C1F4EF6F16F1E0DC
:103070007F0620F480910A0380FF21C0A601652D00
:10308000842D0E94EC21811103C081E08E2502C0B5
:1030900080E090E080FF13C04E2D652D842D0E94AE
:1030A0003F1F882361F08EEB91E00E941B03EEEB43
:1030B000F1E088E0DF011D928A95E9F78AC1A60157
:1030C000652D842D0E94EC21811103C081E08E25A5
:1030D00002C080E090E0B82FB170CB2E80FF2AC0F4
:1030E0004E2D652D842D0E943F1FD82E811122C0A8
:1030F000498A5A8A89899A890E941716292F229506
:103100002F70223018F0243078F405C09F7049F0F9
:10311000811107C00DC09F7021F0F8019581907F4B
:1031200039F0805E883020F0C8010E941B03DC2C3F
:10313000FD2C4FC1EE2009F44BC18091C301816089
:103140008093C30146C18B2D0E94EC21811124C0C4
:10315000D80111968C9111978A111EC08C918B11F8
:103160001BC02091C4013091C50116968D919C9190
:1031700017972817390781F4E1100EC015962C9285
:10318000C8010E941B0388E0F801AEEBB1E001909A
:103190000D928A95E1F76FC0C8010E94C41688237A
:1031A000E1F1EE20D1F12091C301822F82958F7041
:1031B00090E00297A4F08091BE019091BF019A87A0
:1031C00089871B86DD86CC862E878091C4019091ED
:1031D000C501988B8F87CE0109960E941B0388E05A
:1031E000F801AEEBB1E001900D928A95E1F70E94F3
:1031F000691F16C0F090BE019090BF014091C101BF
:103200005091C201692D8F2D0E94EC21882399F0E5
:10321000C8010E94C416811130C0C8010E941B035E
:10322000FF24F394D6C0822D807F21F78EEB91E0AE
:103230000E941B03ACC0D80111968C911197891183
:10324000E7CF8C918F11E4CF2091C4013091C5015B
:1032500016968D919C91179728173907C9F6E1109A
:10326000D7CF15962C92C8010E941B0388E0F50168
:1032700011928A95E9F7F32CACC0EE2071F22091FF
:10328000C301822F82958F7090E002970CF4A7CF34
:103290008091BE019091BF019A8389831B82DD8258
:1032A000CC822E838091C4019091C50198878F8331
:1032B000CE01019692CF8EEB91E00E9493268091F1
:1032C0000503909106038816990608F060C0FE2C4D
:1032D000EE2009F4A2CFE090BE01D090BF01409152
:1032E000C1015091C2016D2D8E2D0E94EC218111E2
:1032F00040C0D80111968C9111978D113AC08C91D4
:103300008E1137C02091C4013091C50116968D9160
:103310009C9117972817390761F580910A0382FD60
:103320001FC08091C30180FD1BC082958F70482F04
:1033300050E041155105A1F02091C30115962C9341
:1033400015974F30510549F08F5F982F9295907FD8
:10335000822F8F70892B15968C93C8010E941B03B6
:1033600088E0F801AEEBB1E001900D928A95E1F7AB
:1033700030C0C8010E94C416811131CF8091C301B1
:1033800081608093C301C8010E941B0322C088E0B2
:10339000F50111928A95E9F71CC0EE2009F43DCFA2
:1033A000C8010E94C416F82E882309F436CF88E09D
:1033B000F801AEEBB1E001900D928A95E1F78091B2
:1033C000BE019091BF010E9417160E94691F01C0A3
:1033D000F12C8F2D65960FB6F894DEBF0FBECDBFD2
:1033E000DF91CF911F910F91FF90EF90DF90CF90E1
:1033F000BF90AF909F908F907F906F905F904F9015
:103400003F902F900895EF92FF920F931F93CF93C9
:10341000DF93CDB7DEB760970FB6F894DEBF0FBE6F
:10342000CDBF29873A874B875C876D877E878F87DB
:10343000988BCE0109960E94A21781114AC088E09C
:10344000FE013996DE01119601900D928A95E1F701
:10345000E984FA840C851D85A8016F2D8E2D0E94AC
:10346000EC21811136C0A091C601B0E0CD010196DA
:10347000877099272091070230E08217930781F126
:10348000E982FA821D830C8393E0AA0FBB1F9A95F1
:10349000E1F7A953BE4F98E0FE01319601900D92DD
:1034A0009A95E1F78093C6010E945F1F12C028E041
:1034B000829FC001112489539E4F0E94A217882326
:1034C000E1F08091070290E0019687709927809340
:1034D0000702809107029091C6018913E8CF0DC0C1
:1034E0000E94D3161092C60110920702EEEBF1E093
:1034F00088E0DF011D928A95E9F760960FB6F8948F
:10350000DEBF0FBECDBFDF91CF911F910F91FF9016
:10351000EF90089580E008959091710192FF0DC0A1
:10352000282F2871283019F4877F846006C0282F3F
:103530002471243011F48B7F886093FF0DC0282FF5
:103540002871283119F4877E846106C0282F2471E0
:10355000243111F48B7E88612091720120FF0DC00F
:10356000382F3871383019F4877F816006C0382FC2
:103570003171313011F48E7F886021FF0DC0282F0A
:103580002871283119F4877E816106C0282F2171A6
:10359000213111F48E7E886194FD877E0895F89420
:1035A000E82FE295EF70F0E031A1282F2F7081E035
:1035B00090E001C0880F2A95EAF7982F9095932301
:1035C00091A392A1892B82A3789408956F927F9200
:1035D0008F929F92AF92BF92CF92DF92EF92FF9223
:1035E0000F931F93CF93DF93CDB7DEB728970FB616
:1035F000F894DEBF0FBECDBFAE014F5F5F4F7A01C3
:1036000088E0FA0111928A95E9F70DE111E06A016B
:1036100021E2622E21E0722E88248394912CF801FD
:1036200080818F3F09F447C0F894E82FE295EF704E
:10363000F0E021A18F70A40102C0440F551F8A95AC
:10364000E2F7CA01922F982B91A392A1809589232A
:1036500082A3789400C0E1E2F1E021E030E0A12C07
:10366000B12C41914F3F89F0A42FA295AF70B0E0EB
:1036700090968C9190E04F7002C0959587954A95F1
:10368000E2F780FD02C0C90102C080E090E0A82AF4
:10369000B92A220F331F51E0EB32F50711F7F80179
:1036A00080818F3F11F00E94CF1AF0EAFA95F1F76E
:1036B000F601B182A0820F5F1F4FF2E0CF0ED11C46
:1036C0006016710609F0ABCF48E050E0B70183E720
:1036D00091E00E94792C01E0009709F400E0892B29
:1036E00089F088E0F701A3E7B1E001900D928A9597
:1036F000E1F781E0809313020E94852090931202EB
:103700008093110280911302882351F1809111025C
:10371000909112020E947620059710F1809173011A
:103720009091740190938801809387018091750135
:103730009091760190938A0180938901809177011D
:103740009091780190938C0180938B018091790105
:1037500090917A0190938E0180938D0110921302C3
:1037600080910D0190910E01019659F110E086E1D2
:10377000982E1EC0989EF001999EF00D1124EB5ECC
:10378000FC4FC288D388C114D10421F4C090050332
:10379000D0900603989E5001999EB00C1124A5016B
:1037A0004B5E5C4F7A01FA01868181110FC01F5F69
:1037B000812F90E020910D0130910E0128173907DB
:1037C000CCF680911401811111C038C08585968591
:1037D0000E947620C816D90650F7C7010E945321CF
:1037E000C501855E9C4F0E940C21E1CF8091EB02C8
:1037F0009091EC02009711F10E94762020914502F1
:103800003091460228173907C8F49091E902809157
:10381000EA02981759F00E949722109246021092DD
:1038200045021092EC021092EB0208C00E9429227D
:103830001092EC021092EB020E9478228091080311
:1038400080FF1EC08091130182FF1AC00E94852054
:103850002091410230914202AC01421B530B209156
:103860001101309112014217530750F024E132E068
:1038700041E0BC0180914302909144020E94832365
:10388000802F28960FB6F894DEBF0FBECDBFDF9114
:10389000CF911F910F91FF90EF90DF90CF90BF904D
:1038A000AF909F908F907F906F900895CF93DF930C
:1038B0008238910569F1B0F48133910509F46FC044
:1038C00048F48932910509F465C08A32910509F4FA
:1038D0006BC08AC08533910509F457C089339105BF
:1038E000B9F082C0833E910571F138F4803E9105B4
:1038F000B1F0823E910511F177C0863E9105B9F194
:10390000873E9105C9F1843E910509F06DC024C040
:103910002091710120FD53C021FD51C065C08091EF
:10392000710180FD46C08091720180FF48C0809186
:10393000710184FD3FC183EE90E03EC18091710131
:1039400082FF3AC0F4CF8091710182FD35C0809131
:10395000720180FD34C0EBCF8091720181FF35C0D0
:103960008091710184FD26C187EE90E025C1809190
:10397000710183FF27C0F4CF8091710183FD22C0C4
:103980008091720181FD21C0EBCF8091710185FD95
:103990001FC021C08091710185FD1DC019C080919B
:1039A000710186FD1BC01DC08091710186FD19C08B
:1039B00015C089E390E000C182EE90E0FDC080EE8A
:1039C00090E0FAC086EE90E0F7C084EE90E0F4C09C
:1039D00089E290E0F1C085E390E0EEC08AE290E0F9
:1039E000EBC081E390E0E8C0811532E5930708F071
:1039F00069C0811541E5940728F0982F8827816FC9
:103A0000906ADAC0883E910568F5803E910508F01D
:103A1000D3C0883A9105B8F4853A910548F0855AA3
:103A2000E82FF0E0E65CFE4F808190E09064C4C037
:103A30008130910509F4BBC008F4BCC08430910505
:103A400008F4B8C0B9C08F3B910508F0B3C0885ADC
:103A5000E82FF0E0EE0FFF1FE35CFE4F80819181C5
:103A60009464AAC0811520E59207F0F09C0174E0EF
:103A7000369527957A95E1F7922F9370482F4370EA
:103A800021E030E002C0220F331F4A95E2F73C6884
:103A9000392B8F70982F9695969540E2949FC00190
:103AA0001124822B932B88C0811530E4930718F0E2
:103AB0009F70906A81C09C013A9521153F4108F49E
:103AC0007BC078C0EC01C11586E5D807E8F5C115C3
:103AD00025E5D20748F08C2F0E948C1A8F7190E058
:103AE000982F8827906268C0C11534E5D30728F065
:103AF0009C2F8827846F906A5FC0AE014370552762
:103B00002C2F26952695C115D34578F481E090E0B9
:103B100002C0880F991F4A95E2F740E2249F900166
:103B20001124822B932B9C6847C081E090E002C057
:103B3000880F991F4A95E2F740E2249F90011124D3
:103B4000822B932B9A6838C0C1152AE5D207F8F466
:103B5000C11539E5D30790F08C2F8F700E948C1A15
:103B600094E0D695C7959A95E1F7CF70D0E0DC2F19
:103B7000CC27D0699E01282BC9011EC0C11548E57C
:103B8000D407C0F09C2F8827806F906A15C0CE01A3
:103B900090568115904270F48D2F8F710E948C1A6F
:103BA000282F2F71CE0199279062922B05C081E0BA
:103BB00090E002C080E090E0DF91CF910895CF9334
:103BC00084E090E00E94222CC82F82E290E00E94C4
:103BD000222C2C2F30E0A901582BCA01CF91089537
:103BE0006AEE7EEF80E090E00E944E2C60E082E082
:103BF00090E00E94302C60E083E090E00E94302C46
:103C00001092100260E084E090E00E94302C60E0AE
:103C100082E290E00E94302C60E085E090E00E941B
:103C2000302C60E086E090E00E94302C6FEF87E05F
:103C300090E00E94302C40E050E0BA0188E090E033
:103C40000E94422C60E08DE090E00E94302C40E029
:103C500050E0BA0188E190E00E94422C60E087E1E8
:103C600090E00E94302C40E050E0BA018CE190E0FE
:103C70000E94422C60E070E080E290E00E944E2CB6
:103C800040E050E0BA0188E190E00E94422C80E0E0
:103C90000E94C32B0E94E12B40E050E0BA018FE06C
:103CA00090E00E94422C40E050E0BA0183E190E0B5
:103CB0000C94422C80910F02882331F010920F0255
:103CC00010920E0210920D020895CF9390917201FE
:103CD00092FD0DC090910F02981749F0C82F0E94D5
:103CE000852090930E0280930D02C0930F02CF9116
:103CF000089580959091120389238093120308956B
:103D000080959091200289238093200208959091BC
:103D10002002892B80932002089510920B021092AA
:103D20000A0210920902089520910B0280958223C5
:103D300080930B02982F977099F430E0482F082E4B
:103D4000000C550B2417350759F09091720192FD24
:103D500007C08595859585950E9485160C948D1EC6
:103D60000895CF93C0917201C2FB992790F99817DB
:103D700099F080FBC2F9C09372016091710184E0F7
:103D800090E00E94302C6C2F82E290E00E94302C58
:103D900082E0CF910C94941ECF910895909172017E
:103DA00092FD10C098E0899F90011124262B20934A
:103DB0000B020E9491160E94852090930A02809324
:103DC000090208950C9491168091EF029091F002EF
:103DD000892B89F00E94852020910D0230910E02DE
:103DE000AC01421B530B81E02091EF023091F002B5
:103DF0004217530708F480E08170089590912002E3
:103E000080911203892B90910C02892B8093B6012B
:103E100080910F02882301F18091EF029091F002CE
:103E2000892B29F00E94E41E81110E945A1E909154
:103E3000B60180910F02892B8093B601E8EBF1E087
:103E400097E080E0915029F021912223D9F38F5FF0
:103E5000F9CF81110E945A1EE091C703F091C80367
:103E6000309731F00280F381E02D86EB91E00994E8
:103E700008958091080281111092080208952091FE
:103E800007029091C6012917B1F030E0F90153E023
:103E9000EE0FFF1F5A95E1F7E953FE4F518156137C
:103EA00006C05081581303C05281541306C02F5FBF
:103EB0003F4F2770E8CF80E0089581E0089580911A
:103EC00007029091C601891719F08F5F8770FBCFA9
:103ED0000895CF92DF92EF92FF920F931F93CF93AB
:103EE000DF938091C30182958F7009F05CC080914F
:103EF000C001882309F457C0C09107028091C60110
:103F0000C81709F450C0F090BE01E090BF01C09006
:103F1000C101D090C201A6016E2D8F2D0E94EC210F
:103F2000D0E081113DC08E0183E0000F111F8A9502
:103F3000E1F7F801E953FE4F81818E1131C0808194
:103F40008F112EC0828181112BC0E380F480EC1888
:103F5000FD0860E08EEB91E00E94932680910503BE
:103F600090910603E816F906D8F48091C3018F708A
:103F700080618093C301F801E453FE4F80818F700C
:103F8000806180838EEB91E00E941B03DF91CF91D3
:103F90001F910F91FF90EF90DF90CF900C945F1FD7
:103FA0002196C770ABCFDF91CF911F910F91FF90FA
:103FB000EF90DF90CF90089508958091910108953A
:103FC0008091ED029091EE02909312018093110185
:103FD0000895CF93DF9321E02093E9002FEF3091F4
:103FE000E800215035FD06C035ED3A95F1F70000A7
:103FF0002111F5CF2091E80025FF14C0EC0140E02D
:1040000050E068E070E00E94AE158091E8008E7785
:104010008093E80088E0FE01A2E9B1E001900D92F2
:104020008A95E1F7DF91CF9108958093D003709343
:10403000D2036093D10380919C018430F9F4809382
:10404000E9008FEF9091E800815095FD06C095ED55
:104050009A95F1F700008111F5CF8091E80085FF76
:104060000DC040E050E063E070E080ED93E00E941E
:10407000AE158091E8008E778093E800089587E779
:1040800097E790930108809300089AE088E10FB6C3
:10409000F894A895809360000FBE90936000FFCFC6
:1040A00078941F920F920FB60F9211248F939F93C3
:1040B000AF93BF938091CC039091CD03A091CE0399
:1040C000B091CF030196A11DB11D8093CC039093B5
:1040D000CD03A093CE03B093CF03BF91AF919F9137
:1040E0008F910F900FBE0F901F9018959C014FB7A6
:1040F000F8948091CC039091CD03A091CE03B09120
:10410000CF034FBF821B930B08952FB7F894809174
:10411000CC039091CD03A091CE03B091CF032FBFDC
:1041200008951F920F920FB60F9211248F939F93B1
:10413000AF93BF938091CB03811113C08091CC03C7
:104140009091CD03A091CE03B091CF034196A11DD4
:10415000B11D8093CC039093CD03A093CE03B09375
:10416000CF03BF91AF919F918F910F900FBE0F9092
:104170001F9018959C01FC0132969FEF80E04191C1
:10418000461789F09F3F19F4411101C0982F8F5FA6
:104190008630A9F79F3F39F0F901E90FF11D97FD2E
:1041A000FA956283089508952091C9033091CA0356
:1041B0002817390771F09093CA038093C903E091DF
:1041C000C703F091C803309721F00084F185E02DFA
:1041D000099408952091C5033091C6032817390723
:1041E00071F09093C6038093C503E091C703F091EB
:1041F000C803309721F00680F781E02D09940895D7
:10420000E091C703F091C803309721F00190F0814D
:10421000E02D099480E00895EF92FF920F931F9391
:10422000CF93DF93FC012285211136C0EC01E3809E
:10423000F480F7E5FF1A26E12E9DC0012F9D900D19
:104240001124DC01AB5EBC4F1496ED91FC911597E7
:10425000855E9C4F309729F054966D917C915597CF
:10426000099586E18E9D80018F9D100D11240B5EB6
:104270001C4FF80187810E94801EF80180850E94F2
:10428000791E0E94FE1E188219861B861E821D82C0
:104290001092140310921303DF91CF911F910F918D
:1042A000FF90EF900895CF93DF93FC0121892111B6
:1042B00019C0EC0181E0818B87810E94871E90915B
:1042C00012038885892B809312030E94FE1EEA81C7
:1042D000FB81CE010696309729F06C897D89DF91AC
:1042E000CF910994DF91CF9108950F931F93CF93AE
:1042F000DF93C42FD22FFC0182818823C9F0409321
:1043000011030E9485209093100380930F0380E295
:104310008C0F883008F05BC0C77081E001C0880F47
:10432000CA95EAF7DF91CF911F910F910C94F61681
:1043300080911103481334C080910F0390911003B2
:104340000E9476202091050330910603821793077F
:1043500038F510E21D0FCD17B9F080E28C0F8830D0
:1043600040F4C77081E001C0880FCA95EAF70E9447
:10437000EF16183028F581E09D2F977001C0880F47
:104380009A95EAF70E94F616802F0E94801718303F
:10439000F0F4D77081E001C0880FDA95EAF70AC01F
:1043A00080E28C0F883098F4C77081E001C0880FDC
:1043B000CA95EAF7DF91CF911F910F910C94EF16F8
:1043C000802FDF91CF911F910F910C948017DF9177
:1043D000CF911F910F910895452B41F06F3F41F40C
:1043E00091E08F3F09F090E0892F03C081E001C088
:1043F00080E081700895BC014091E9028091EA0259
:10440000942F981729F1292F30E0F901EE0FFF1FA3
:10441000EF51FD4F0190F081E02DE617F70799F479
:1044200087E0869FF001879FF00D1124E755FD4F2F
:1044300081E0848394130CC02F5F3F4F2370332798
:104440002093E90208952F5F3F4F922F9370D9CFA9
:104450000895EF92FF920F931F93CF93DF93809174
:1044600048028823F1F1009147028CE0F82E8091F8
:104470004802081790F5EE24E394E00EE09247021C
:1044800010E0F09EE001F19ED00D1124C75BDD4FDE
:104490004B815C81698188810E94EC2181111BC064
:1044A0008E819F81892B21F488859985019651F40D
:1044B000288139814A815B816C817D818E819F81D8
:1044C0000E94031AF09EF001F19EF00D1124E75BAB
:1044D000FD4F148213820E2DCACF10924802109203
:1044E0004702DF91CF911F910F91FF90EF900895B8
:1044F0001092460210924502E9EAF2E085818111AC
:1045000002C014821682379682E0E13EF807B1F7C6
:1045100008951092EC021092EB0210921401809117
:10452000EA028093E9020E9478220C9429223F92A9
:104530004F925F926F927F928F929F92AF92BF92B3
:10454000CF92DF92EF92FF920F931F93CF93DF935F
:10455000C091E90297E0892E01E010E02CE0322EB4
:104560003EEF932E442443948091EA02C81709F445
:1045700078C0D0E0FE01EE0FFF1FEF51FD4F8081AC
:104580009181889ED001899EB00D1124A755BD4F01
:1045900014962C911497211161C050904802E9E4BF
:1045A000F2E020E030E0712C5D01251508F054C0E8
:1045B000E284F384D501CD90DC906FEF7FEF612C26
:1045C000462D50E0DA01AA0FBB1FAC0DBD1D0D90AA
:1045D000BC91A02D109731F0EA16FB0609F4BA0140
:1045E0006394EECF6F3FBFEF7B0791F1D80102C01C
:1045F000AA0FBB1F6A95E2F77A2AB80102C0660FBC
:10460000771F6A94E2F7AB0141505109672D70E0C2
:1046100046175707D9F4329EF001339EF00D11244E
:10462000E75BFD4F889ED001899EB00D1124A755F0
:10463000BD4F12962D913C9113973783268390821C
:1046400091829187808715964C9206C014821382BE
:104650002F5F3F4F3C96A9CF0E94FB212196C3704C
:1046600083CF0E942922DF91CF911F910F91FF905C
:10467000EF90DF90CF90BF90AF909F908F907F9002
:104680006F905F904F903F900C947822809113012F
:10469000877F8093130182E00E94791E809113012D
:1046A00084FF06C08F7E8093130182E00E94871EE4
:1046B0008091130185FF06C08F7D8093130180E2F6
:1046C0000E94871E0C94FE1E662329F0209112037F
:1046D0002260209312039C013056211540E23407DA
:1046E00020F0305E2115304108F499270C942229DE
:1046F000009741F0EFE9FFE03197F1F700C00000CB
:104700000197F6CF0895AF92BF92CF92DF92EF92CA
:10471000FF920F931F93CF93DF935C017B01C42E15
:1047200089018091130182FF8DC0C0914302D09115
:104730004402CA15DB0521F0A114B10409F082C0BE
:10474000809113018B7F8093130181FD11C08091B3
:10475000410290914202A701481B590B81E0209130
:104760001101309112014217530718F480E001C083
:1047700081E08170D82E80911301D0FA81F9809365
:104780001301FE01FF2784E0F695E7958A95E1F78E
:104790009E012F703327EE0FFF1FEF5DFD4F81E06D
:1047A00090E002C0880F991F2A95E2F7DD2029F0DA
:1047B00020813181822B932B06C08095909520819A
:1047C000318182239323918380838091200281FF12
:1047D00008C08091130180618093130182E00E94E0
:1047E000801E8091200285FF08C0809113018062A5
:1047F0008093130180E20E94801EA8016D2DCE01DE
:104800000E946423CC2031F08091080385FF02C010
:1048100086FF36C080910B0390910C030E94782391
:1048200080914302909144029C013056211540E250
:10483000340720F0305E2115304108F499270E949A
:10484000082918C095013327C5019056811540E20B
:10485000940720F0905E8115904110F4C90101C0C9
:10486000C5010E9408298091430290914402A81634
:10487000B90611F40E944623F0924202E0924102EE
:10488000DF91CF911F910F91FF90EF90DF90CF902C
:10489000BF90AF9008950F931F93CF93DF930DEECA
:1048A00012E0C7E6D1E0CE010E94222CF8018193EC
:1048B0008F012196C938F1E0DF07A9F7C0E0D0E009
:1048C000FE01E755FB4F85919491009711F0FC0193
:1048D00009952896C035D10599F7DF91CF911F91A1
:1048E0000F9108950F931F93CF93DF930DEE12E076
:1048F000C7E6D1E0CE010E94222CF80161918F0120
:10490000681719F0CE010E94302C2196C938F1E0C9
:10491000DF0781F7DF91CF911F910F910895EDEEA1
:10492000F2E0128E138E8FEA90E09183808385E00F
:10493000848F88E893E19383828382E390E0978B6E
:10494000868B88EC90E0918F808F158E8AE090E0C6
:10495000978F868F80E590E091A380A30E947224B8
:104960000C944B24CF93DF93C9E2D2E060E0CE01F8
:104970000E94302C2196C11584E0D807B9F7DF9149
:10498000CF910895462F20911E0230911F02232BB4
:1049900091F47E3F39F46E3F71F480911C02909146
:1049A0001D020895843038F4743028F46A3018F405
:1049B000672F0C94E62A80E090E008956F927F9232
:1049C0008F929F92AF92BF92CF92DF92EF92FF921F
:1049D0000F931F93CF93DF93CDB7DEB764970FB6D6
:1049E000F894DEBF0FBECDBFA0900F01B0901001B4
:1049F00081E090E09093100180930F01612CC12C15
:104A0000D12C712CE12CF12C00E010E046018E0C31
:104A10009F1CF801EE0FFF1FE80DF91DED59FC4F2B
:104A200025913491402F672D862D0E94B02A0F5F6B
:104A30001F4F0A30110569F784E1E80EF11C7394E9
:104A4000E4E07E12E1CFF0E5CF0ED11C639484E068
:104A50006812D7CF0E948F241A8219821C821B826F
:104A60001E821D8218861F8288EC90E09A878987B3
:104A700009E811E04AE050E0B801CE0101960E9439
:104A8000542C065F1F4F093DE1E01E0799F77E0198
:104A9000FBE0EF0EF11C8AE0F70111928A95E9F72D
:104AA0004AE050E0B801C7010E94542C065F1F4F36
:104AB0000932F2E01F07A1F7B0921001A0920F0196
:104AC00064960FB6F894DEBF0FBECDBFDF91CF91D5
:104AD0001F910F91FF90EF90DF90CF90BF90AF901C
:104AE0009F908F907F906F900895883080F49B0105
:104AF000982F8AE0989FB001112467577E4F4AE0B3
:104B000050E0C9010E94122C80E090E008958FEFE0
:104B10009FEF08959C013A9521153F4130F5BC0166
:104B200066277270AC01442754709C0122273870AC
:104B300094FF0FC090FF02C080E101C080E0672BAE
:104B400009F08062452B09F08064232B79F080689E
:104B50000895892F8170672B09F08260452B09F039
:104B60008460232B19F08860089580E00895AF9247
:104B7000BF92CF92DF92EF92FF920F931F93CF934A
:104B8000DF93EC018AE0A82E2881222309F497C044
:104B9000213009F041C08981813039F48E010E5FE6
:104BA0001F4F8A810E94801708C0823041F48E0115
:104BB0000E5F1F4F8A810E942E17E8017EC083304E
:104BC00039F48E010E5F1F4F8A810E94FD16F5CFCA
:104BD000843011F0219671C02A81229680E090E005
:104BE00030E0205331092A30310558F4A89EA00145
:104BF000A99E500D1124C901840F951F219628816B
:104C0000EFCF009709F459C0EFE9FFE03197F1F7D2
:104C100000C000000197F5CFE22FF0E0ED5DFA4F04
:104C2000B490822F86958695869590E0FC01ED5E86
:104C3000FA4FE4902770F12C022E02C0F594E7940D
:104C40000A94E2F7F1E0EF22FF24FC01ED5FFA4F56
:104C5000C490D12C022E02C0D594C7940A94E2F7D6
:104C600031E0C322DD24FC01ED50FB4F049110E044
:104C700002C0159507952A95E2F701701127E114F6
:104C8000F10419F081EE0E942E17C114D10419F01D
:104C900086EE0E942E178B2D0E948017CD2819F0CA
:104CA00086EE0E94FD16EF2819F081EE0E94FD1697
:104CB000012B19F08CE20E948017219665CFDF91BD
:104CC000CF911F910F91FF90EF90DF90CF90BF9009
:104CD000AF9008951F93CF93DF9300D000D01F9221
:104CE000CDB7DEB749835A8389819A81662359F00B
:104CF000222349F00E94E815182F682F89819A8194
:104D00000E94541603C00E942416182F69817A81CC
:104D1000812F0F900F900F900F900F90DF91CF91F8
:104D20001F910C94C224FC01262F86819781009745
:104D300039F4408151816281738184810C946A26A7
:104D400008952F923F924F925F926F927F928F922F
:104D50009F92AF92BF92CF92DF92EF92FF920F930A
:104D60001F93CF93DF93CDB7DEB76A970FB6F89452
:104D7000DEBF0FBECDBF942F498B252F5A8B6B8B77
:104D80007C8B8D8B4C895D89622F892F0E94EC2151
:104D9000811109C080916F019091700101969093EB
:104DA000700180936F018B898111109212038E0123
:104DB000075F1F4F88E0F80111928A95E9F785E0B7
:104DC000FE017196D80101900D928A95E1F78091CC
:104DD000720182FD28C08091EF029091F002892B30
:104DE00011F10E9485202091090230910A02821B54
:104DF000930B2091EF023091F0028217930740F05D
:104E000080910B0282FB992790F981E0892701C0EC
:104E100080E080FF03C082E00E94941E0E94E41E96
:104E200081110E945A1E4C855D856A8589850E9484
:104E3000EC218111CAC161E0C8010E9493266C0176
:104E4000873FFCE59F0739F48B858823A9F081E033
:104E500080931401BAC1883F9C4531F48B85882327
:104E600059F00E948922B1C189EFC8168CE5D80695
:104E700019F48B85811111C009EA12E0512CA12C83
:104E8000B12C66246394712C33243394FE01319643
:104E9000FF8BEE8BF7E02F2E4DC0809114018823FD
:104EA000B1F2DFCFC616D70609F097019F5F7901EF
:104EB000292F30E0F901EE0FFF1FE40FF51F60818D
:104EC00071816115710571F7FFEFEF16FF0609F4A7
:104ED00030C1F8016481611135C020911401822F25
:104EE00081704B84F80135812681442009F4C9C0C2
:104EF000882309F4C6C080900303909004033323F1
:104F000021F1930102C0220F331F9A95E2F721503D
:104F10003109F801868190E02817390749F15428B2
:104F2000FFEFAF1ABF0A095F1F4F28E0A216B104B6
:104F300009F401C1F80140815181EE24EA94FE2C6C
:104F400090E0B6CF20E030E0CACFA30101C0440F0B
:104F5000EA94EAF7242B26832091450230914602F9
:104F60002815390570F69092460280924502C9CF05
:104F70008091EB029091EC02009731F00E94762034
:104F80008816990608F41EC18091E902F091EA02A0
:104F9000F88FE0E0F0E0288D821709F460C0282F38
:104FA00030E0F901EE0FFF1FEF51FD4F808091803F
:104FB000289CF001299CF00D1124E755FD4FF0804D
:104FC000E18050E090E040E0EF2DFE2DE40FF11D78
:104FD000E40FF11DA081B1811097D1F0F801F081AB
:104FE000F98FF801F181FA8F90E0E98DFA8DE90FE0
:104FF000F11DE90FF11D608171816115710531F0BD
:10500000A617B70709F451E09F5FEFCF4F5FDCCFE2
:105010005523F9F09417C8F0289CF001299CF00D55
:105020001124E755FD4F3097B1F03482E017F107B6
:1050300009F475CF9091E90289130DC0C901019659
:10504000837099278093E90206C00115110509F0C4
:10505000B9C0E0E0F0E0C901019683709CCFE01791
:10506000F10709F45CCF90E0FC01EE0FFF1FEF5158
:10507000FD4FB182A0820196837099278093EA0246
:105080004ECF311112C0A30102C0440F551F9A9593
:10509000E2F74150510930E042175307E9F5662322
:1050A000E1F1C5010E94FB2137C0822F90E09C01F5
:1050B00021503109282339230E2C02C0959587955C
:1050C0000A94E2F7232B31F580FF24C0F801828196
:1050D0009381892BD9F088E0EE89FF8911928A9516
:1050E000E9F78EEF89838A830E9485208160582F9B
:1050F0009D838C83F801828193818F839887298196
:105100003A814B816D817E810E94031AF8011582DC
:1051100081E003C0817001C080E0930101C0220FD3
:10512000EA94EAF72095F801968129232683482EF0
:10513000F6CE412CF4CE8B85882381F1552071F178
:105140000E9485209093EC028093EB0280914802AC
:10515000883008F044C091E0980F9093480298E09E
:10516000FE013996DE01119601900D929A95E1F7B4
:10517000ECE08E9FC0011124875B9D4F28E0FE016B
:105180003196DC0101900D922A95E1F72FEF3FEF68
:10519000FC0131872087D386C28621C09091E90225
:1051A0008091EA02981719F00E94972208C00E9485
:1051B00029221092EC021092EB020E9478225520D4
:1051C00021F00DC0F8013482AACE29853A854B859D
:1051D0005C856D857E858F8598890E94031A6A9605
:1051E0000FB6F894DEBF0FBECDBFDF91CF911F91F8
:1051F0000F91FF90EF90DF90CF90BF90AF909F9076
:105200008F907F906F905F904F903F902F90089578
:10521000CF93DF93EC010E94FD16CE01805E9109D1
:10522000089710F0209739F4CE010E948A25DF916B
:10523000CF910C94EF16CE010E948A25DF91CF9179
:105240000C94DE16CF93DF93EC01805E91090897F2
:1052500010F0209731F4CE010E948A250E94F616A4
:1052600005C0CE010E948A250E94E5168C2FDF9191
:10527000CF910C942E17CF93DF9300D000D01F92C4
:10528000CDB7DEB790931D0280931C02811520E2FA
:10529000920748F40F900F900F900F900F90DF91AE
:1052A000CF910C9408298EEF89838A831B820E94F8
:1052B00085208160782F9D838C8349815A816B8101
:1052C0008D810E94A1260F900F900F900F900F904C
:1052D000DF91CF910895CF93DF9300D000D01F923C
:1052E000CDB7DEB790931D0280931C02811520E29A
:1052F000920748F40F900F900F900F900F90DF914E
:10530000CF910C9422298EEF89838A8381E08B834D
:105310000E9485208160782F9D838C8349815A81EA
:105320006B818D810E94A1260F900F900F900F909E
:105330000F90DF91CF9108950F931F93CF93DF9339
:105340008C01EB016BED73E08C2F0E947525892B8E
:1053500009F046C080910B0390910C030E947823C2
:10536000DD27CD52DC4F8881F8011082188283300E
:1053700079F048F4813041F1823091F58091DD037C
:105380009091DE0309C0843051F08530E9F028C0E7
:105390008091DF039091E0030097B1F01BC08091F2
:1053A000E1039091E2030097A9F42091DB0330918F
:1053B000DC038091DD039091DE032115310541F07E
:1053C000009741F4C90106C08091DB039091DC0392
:1053D000009731F0DF91CF911F910F910C943B29F1
:1053E000DF91CF911F910F910895CF93DF93EC013F
:1053F0000E946B2980910B0390910C030E947823EB
:10540000CE01DF91CF910C943B290F931F93CF9343
:10541000DF938C01862F6BED73E00E947525892B3D
:10542000D1F4C091DB03D091DC032097A1F0F80107
:105430008081833039F4CE010E94F529CE010E948B
:10544000F52902C0843038F0CE01DF91CF911F9151
:105450000F910C94F529DF91CF911F910F91089531
:105460000F931F93CF93DF938C01EB016BED73E0F0
:105470008C2F0E947525892B09F06DC0DD27F8015E
:105480008081813041F49185911115C092859923D5
:1054900091F082E010C0823049F4F80181858111D9
:1054A00007C08285811106C083E005C086E003C085
:1054B00085E001C084E0CD52DC4F88838330B1F0B9
:1054C00028F4813071F0823031F045C08430A9F089
:1054D000853079F140C08091DD039091DE03009723
:1054E000A1F58091DB039091DC0320C08091DF0364
:1054F0009091E0030097E9F028C08091E10390913A
:10550000E203009711F58091DB039091DC03009793
:1055100049F00E94F5298091DD039091DE03009708
:1055200081F013C08091DD039091DE03009799F024
:105530000CC08091DB039091DC03009761F00E9426
:10554000F5298091DB039091DC03DF91CF911F91CE
:105550000F910C946B29DF91CF911F910F910895BA
:105560000F931F93CF93DF93843058F5643048F541
:105570004A3038F521159CE5390731F4E0910F01E7
:10558000F0911001EF2BE9F08901C42FD0E0CC0F8E
:10559000DD1F94E1699FC00DD11D112490E5899F05
:1055A000C00DD11D1124612FCE0187960E94302C91
:1055B000602FCE018896DF91CF911F910F910C94AF
:1055C000302CDF91CF911F910F9108950F931F936E
:1055D000CF93DF93843008F56430F8F44A30E8F470
:1055E000C42FD0E0CC0FDD1F24E1629FC00DD11D80
:1055F000112430E5839FC00DD11D1124CE01879663
:105600000E94222C90E0182F0027CE0188960E943D
:10561000222C9801282BC90102C080E090E0DF9184
:10562000CF911F910F910895CF92DF92EF92FF9249
:105630000F931F93CF93DF93CDB7DEB72A970FB6A3
:10564000F894DEBF0FBECDBF80E5E5EEF3E0DF01ED
:105650001D928A95E9F788E3E9EAF2E0DF011D92FD
:105660008A95E9F785EEC82E83E0D82E7F0109EDF3
:1056700011E0F701D182C0824AE050E0B801CE01CA
:1056800001960E94122C88E0FE013196D60101900D
:105690000D928A95E1F789859A85D70113969C9397
:1056A0008E931297BAE0CB0ED11CE7E0EE0EF11C00
:1056B000065F1F4F0932F2E01F07D9F62A960FB690
:1056C000F894DEBF0FBECDBFDF91CF911F910F9138
:1056D000FF90EF90DF90CF9008958F929F92AF92BE
:1056E000BF92CF92DF92EF92FF920F931F93CF93CF
:1056F000DF93CDB7DEB72A970FB6F894DEBF0FBEA3
:10570000CDBF05E113E0E12CF12C85E0C82E8AE243
:10571000D82E90E3A92E9AE2B92E2CE9822E29E206
:10572000922EF801D182C082B382A28295828482B5
:10573000F58AE48ABE016F5F7F4F8E2D0E9475252A
:10574000892B29F489859A85F801938B828BFFEF49
:10575000EF1AFF0A0A5E1F4F88E0E816F10409F706
:105760002A960FB6F894DEBF0FBECDBFDF91CF9162
:105770001F910F91FF90EF90DF90CF90BF90AF906F
:105780009F908F900895CF93C82F811102C06FEF23
:1057900001C066E183E290E00E94302CC11102C09A
:1057A0006FEF01C068ED84E290E00E94302CC111DF
:1057B00002C06FEF01C066E685E290E0CF910C94E5
:1057C000302C80E00E94C32B60E086E290E00E94D3
:1057D000302C0E94DE240E94B22481E00C94C32B62
:1057E00083E290E00E94222C863181F484E290E0F2
:1057F0000E94222C883D51F485E290E00E94222CE8
:1058000091E0863609F090E0892F01C080E0817038
:105810000895FB01DC0102C005900D9241505040FB
:10582000D8F70895DC01CB01FC01F999FECF06C041
:10583000F2BDE1BDF89A319600B40D92415050404E
:10584000B8F70895F999FECF92BD81BDF89A9927CE
:1058500080B50895A8E1B0E042E050E00C94142C2B
:10586000262FF999FECF92BD81BDF89A019700B419
:10587000021639F01FBA20BD0FB6F894FA9AF99AB9
:105880000FBE08950396272F0E94312C0E94302CC2
:10589000252F0E94312C242F0C94312C0196272F78
:1058A0000E94312C0C94302CDC01CB0103C02D91D3
:1058B0000E945F2C41505040D0F70895262FF9994F
:1058C000FECF1FBA92BD81BD20BD0FB6F894FA9AE3
:1058D000F99A0FBE01960895EE0FFF1F0590F491FF
:1058E000E02D099469279627692778278727782745
:1058F0000895FB01DC0104C08D910190801921F411
:1059000041505040C8F7881B990B0895FB01DC01FA
:1059100002C001900D9241505040D8F70895DC012B
:1059200001C06D9341505040E0F70895F894FFCFC7
:10593000DD1FE91FDC1FEF10EB10EA1001FFFF0174
:1059400000AF000101B224F68BCC4796A5F4F5F622
:10595000F793929190946697C6343540223268024C
:1059600046021402BA02D302F302818283E200E902
:1059700000EA00B500B600B700CD008301CC008A74
:10598000019201940121022302240225022602270A
:0C599000022A02B300B4006F0070000097
:00000001FF
